:020000040800F2
:10000000C0C10020ED010008F5010008DF12000862
:10001000F9010008FB010008FD01000800000000D4
:10002000000000000000000000000000FF010008C8
:100030000102000800000000030200080502000899
:10004000070200080702000807020008070200086C
:10005000070200080702000807020008070200085C
:10006000410F0008530F0008650F00080702000841
:10007000070200080702000807020008070200083C
:10008000070200080702000807020008070200082C
:10009000350500080702000807020008770F00086E
:1000A000070200080702000807020008070200080C
:1000B00007020008070200080702000807020008FC
:1000C00007020008070200080702000807020008EC
:1000D00007020008153500084D350008D93500081D
:1000E0001D0F0008070200080702000800000000BA
:1000F0000000000000000000000000000000000000
:100100000000000000000000152F00080702000892
:100110005D340008B934000807020008070200082F
:10012000070200080702000807020008070200088B
:10013000070200080702000807020008070200087B
:10014000070200080702000807020008070200086B
:1001500000F002F800F03AF80AA090E8000C82449F
:100160008344AAF10107DA4501D100F02FF8AFF27C
:10017000090EBAE80F0013F0010F18BFFB1A43F085
:1001800001031847F4490000144A0000103A24BF44
:1001900078C878C1FAD8520724BF30C830C144BFEC
:1001A00004680C607047000000230024002500262E
:1001B000103A28BF78C1FBD8520728BF30C148BFCA
:1001C0000B6070471FB51FBD10B510BD00F0E9F8FA
:1001D0001146FFF7F7FF03F03BFD00F007F903B40A
:1001E000FFF7F2FF03BC00F007F900000948804761
:1001F00009480047FEE7FEE7FEE7FEE7FEE7FEE709
:10020000FEE7FEE7FEE7FEE704480549054A064B20
:1002100070470000A92E000851010008C0A100206D
:10022000C0C10020C0A90020C0A90020421E12F8B1
:10023000013F002BFBD111F8013B002B02F8013BE1
:10024000F9D1704710B5203AC0F00B80B1E81850D2
:10025000203AA0E81850B1E81850A0E81850BFF4B0
:10026000F5AF5FEA027C24BFB1E81850A0E818504F
:1002700044BF18C918C0BDE810405FEA827C24BFA3
:1002800051F8043B40F8043B08BF7047D20728BF31
:1002900031F8023B48BF11F8012B28BF20F8023B80
:1002A00048BF00F8012B70474FF0000200B513461D
:1002B00094469646203922BFA0E80C50A0E80C5086
:1002C000B1F12001BFF4F7AF090728BFA0E80C5037
:1002D00048BF0CC05DF804EB890028BF40F8042B30
:1002E00008BF704748BF20F8022B11F0804F18BF9D
:1002F00000F8012B704710B5044610F0030F08BF3B
:1003000011F0030F40F015804FF0013E121FC0F2B4
:100310000E8051F8043BA3EB0E0C2CEA030C1CEAF4
:10032000CE1C08BF40F8043BF0D0A1F1040102F15B
:100330000402521E08DB11F8013B002B00F8013BC0
:10034000F7D1114600F005F8204610BD7047704700
:1003500070474FF000020429C0F0128010F0030C27
:100360003FF4A4AFCCF1040CBCF1020F18BF00F8AD
:10037000012BA8BF20F8022BA1EB0C01FFF796BFC1
:100380005FEAC17C24BF00F8012B00F8012B48BFB5
:1003900000F8012B704700000048704760A1002062
:1003A00070477546FFF7F8FFAE46050069465346AD
:1003B00020F00700854618B020B5FFF725FFBDE8FF
:1003C00020404FF000064FF000074FF000084FF0BC
:1003D000000B21F00701AC46ACE8C009ACE8C0094D
:1003E000ACE8C009ACE8C0098D4670470446AFF3DD
:1003F00000802046FFF7F3FE01491820ABBEFEE760
:100400002600020070B506460C4615462A4881684B
:10041000304604F007FA08D0002027490860334628
:1004200000220321254800F08DF823484169204629
:1004300004F0F8F908D000201F49C86023460022C4
:1004400004211E4800F07EF81B48016A284604F08B
:10045000E9F908D00020184988612B4600220221C2
:10046000164800F06FF814488168304604F0DAF955
:1004700006D000BF104800680028FBD00E488660F8
:100480000D484169204604F0CDF906D000BF0A4866
:10049000C0680028FBD0084844610748016A284624
:1004A00004F0C0F906D000BF034880690028FBD0E3
:1004B0000148056270BD00003C8800201401002046
:1004C00070B50446002594F8A00090BB206803F0A6
:1004D000C1F9211DD4F89C2021F8120054F89C0F7A
:1004E000401C206054F89C09801E211D31F810002A
:1004F0000D281ED1D4F89C00401E31F810000A28A7
:1005000017D100BF05E0201D10F8151064304155CB
:100510006D1CD4F89C00801EA842F4DC002204F17B
:100520006800691C42540020C4F89C00012084F833
:10053000A00070BD10B5024800F076F810BD0000B4
:10054000140100202DE9F05F04468B4691469A463F
:1005500094F82C10204600F01EFB5946204600F06F
:1005600023FB04212173002161730821A17303215E
:10057000E1730221217484F81190504604F0B8F818
:1005800005460022134603F087FF02D80021A1741C
:100590000DE00121A174504604F0AAF8074600229C
:1005A000134603F0AFFF054603F0BEFB82465046FC
:1005B00004F09EF8074600220C4B03F06FFE054640
:1005C00003F0F0FD010AE174504604F091F807468B
:1005D0000022064B03F062FE054603F0E3FD2075A2
:1005E000204600F0D1FABDE8F09F00000000244052
:1005F00010B504460B48844209D10121480602F097
:1006000073F800214FF0007002F06EF808E001214D
:10061000880602F069F800214FF0806002F064F86B
:1006200010BD00000064004010B58CB0044604F119
:1006300018020021206800F02FFA202204F1100196
:100640006846FFF7FFFD94E80F0000F0EFF894F81C
:100650002C10884259D10BA8202204F110010890D7
:100660006846FFF7EFFD94E80F0000F079F90128E4
:100670001ED1202204F110016846FFF7E3FD94E843
:100680000F0000F0CDF802280CD0032802D0042877
:100690000CD103E001201E49086008E001201C493C
:1006A000C86004E001201A49886100E000BF2CE026
:1006B0000AA8202204F1100108906846FFF7C2FD45
:1006C00094E80F0000F080F901281ED1202204F1E7
:1006D00010016846FFF7B6FD94E80F0000F0A0F89F
:1006E000F82803D101200B4908600EE0202204F114
:1006F00010016846FFF7A6FD94E80F0000F090F89F
:10070000F92802D10120034948600CB010BD000057
:100710003C8800202800002010B50021837A0122A7
:1007200002FA03F13D4A126842F001023B4B1A60A3
:100730003A4A1C3212688A43384B1C331A60027BD7
:10074000CAB9364A0C3212688A43344B0C331A60E9
:100750004288C38842EA0343304A4032847A42F8EE
:1007600034300288838842EA03432C4A4032847A38
:1007700002EBC4025360027B012A19D1274A0C32D2
:1007800012680A43254B0C331A604288038842EAF8
:100790000343224A4032847A42F83430C288838844
:1007A00042EA03431D4A4032847A02EBC40253609A
:1007B000C27A3AB9194A121D12688A43174B1B1D97
:1007C0001A6006E0154A121D12680A43134B1B1DDE
:1007D0001A60028932B9114A143212688A430F4BE7
:1007E00014331A600289012A06D10C4A14321268A5
:1007F0000A430A4B14331A60427B012A06D1074A86
:100800001C3212680A43054B1C331A60034A1268F3
:1008100022F00102014B1A6010BD0000006600408A
:100820000FB40798C0F3475004B070470FB407994E
:10083000C1F3473004B070471AB143690B434361B9
:1008400002E043698B434361704730B502460020A4
:100850000023146824F002041460146844F00104B6
:10086000146000E05B1C546804F001041CB94FF6EE
:10087000FF74A342F6D1546804F001040CB90020BF
:100880006CE08C79012C04D1146844F0800414606D
:1008900003E0146824F080041460CC79012C04D1A6
:1008A000146844F04004146003E0146824F0400429
:1008B00014600C7A012C04D1146844F020041460F4
:1008C00003E0146824F0200414604C7A012C04D155
:1008D000146844F01004146003E0146824F0100459
:1008E00014608C7A012C04D1146844F0080414605C
:1008F00003E0146824F008041460CC7A012C04D1BD
:10090000146844F00404146003E0146824F0040440
:1009100014608C78A407CD7844EA05640D7944EA24
:1009200005444D7944EA05540D886D1E2C43D4616D
:10093000146824F001041460002300E05B1C546878
:1009400004F001041CB14FF6FF74A342F6D15468C1
:1009500004F001040CB1002000E0012030BD0000D3
:100960000FB42DE9F041129C9DF83B00032826D1DD
:100970009DF83C00022822D19DF840209DF83F10B0
:1009800042EA012003F09EFF2060206803F0B0FEE1
:10099000074600220B4B03F0ADFA054603F0C4F9FD
:1009A00020609DF83E00012804D10020216804F059
:1009B0006DF820600120BDE8F0015DF814FB002017
:1009C000F9E70000000024400FB42DE9F041129C2B
:1009D0009DF83B0002281BD19DF83C00022817D14E
:1009E0009DF840109DF83F0041EA002020802088BB
:1009F00003F005FC07460022064B03F07BFA054690
:100A000003F0D0FB20800120BDE8F0015DF814FB6D
:100A10000020F9E7000024402DE9F05F04468B46F2
:100A200091469A4694F82C10204600F0B4F85946A6
:100A3000204600F0B9F804212173002161730821D8
:100A4000A1730221E173217484F811900021A17433
:100A5000504603F0D4FB074600220C4B03F01EFC6B
:100A6000054603F09FFB010AE174504603F0C7FB03
:100A700005460022054B03F011FC074603F092FBEC
:100A80002075204600F080F8BDE8F09F000024406B
:100A900080F82C200160704710B500F5D87303EB87
:100AA00001131B6803F004031372137A53B900F5A2
:100AB000D87303EB01131B6840F2FF7404EA53532D
:100AC000136009E000F5D87303EB01131B686FF0A6
:100AD000604404EAD303536000F5D87303EB0113B9
:100AE0001B6803F00203537200F5D87303EB011384
:100AF0005B6803F00F03937200F5D87303EB0113E7
:100B00005B681B0AD37400F5D87303EB01139B6871
:100B1000D37200F5D87303EB01139B681C0A14739E
:100B200000F5D87303EB01139B681C0C547300F59C
:100B3000D87303EB01139B681B0E937300F5D873F6
:100B400003EB0113DB68D37300F5D87303EB0113D8
:100B5000DB681C0A147400F5D87303EB0113DB681F
:100B60001C0C547400F5D87303EB0113DB681B0EE7
:100B7000937421B9C36843F02003C36003E00369A1
:100B800043F02003036110BD10B50446211D206809
:100B900000F023F810BD826802F060438360826831
:100BA00042EA415383607047826822F4FF138360F6
:100BB000826842EA41338360704700218171C171CC
:100BC000017241728172C1728170C1700321017121
:100BD0000221417101210180704710B502460020B9
:100BE000936803F08063B3F1806F00D110E09368E5
:100BF00003F00063B3F1006F01D1012008E09368B6
:100C000003F08053B3F1805F01D1022000E00420A3
:100C1000042874D002F5C07303EB00131B6803F0C3
:100C2000010402F5C07303EB00131C600B7A7BB95F
:100C30004B7A0C8843EA445302F5C07404EB001469
:100C40002468234302F5C07404EB0014236010E011
:100C50000B7A4C6843EAC4034C7A234302F5C07410
:100C600004EB00142468234302F5C07404EB001461
:100C700023608B7A03F00F038B7202F5C07303EBD2
:100C800000135B6823F00F0402F5C07303EB00133D
:100C90005C6002F5C07303EB00135B688C7A23433E
:100CA00002F5C07404EB001463608B7B1C064B7B65
:100CB00044EA03440B7B44EA0323CC7A234302F542
:100CC000C07404EB0014A3608B7C1C064B7C44EACC
:100CD00003440B7C44EA0323CC7B234302F5C0741A
:100CE00004EB0014E36002F5C07303EB00131B6810
:100CF00043F0010402F5C07303EB00131C6010BD48
:100D00000021416081600170704710B5044694F87D
:100D10000C0278BB206802F09DFDC1B2201DD4F802
:100D2000042281542079A5280FD1D4F80402401C54
:100D3000C4F80402D4F80402FF2801DD002001E019
:100D4000D4F80402C4F8040202E00020C4F804024B
:100D50002079A5280FD160795A280CD1A079801C60
:100D6000D4F80412814206DD0020C4F804020120F8
:100D700084F80C0209E0D4F80402042805DD607947
:100D80005A2802D00020C4F8040210BD70B50446F1
:100D90000D460020C4F808028021204600F04BF8E0
:100DA0000321204600F047F82946204600F02BF8A2
:100DB000204600F001F870BD30B5ADF5017D044668
:100DC000A520ADF804005A20ADF80600B4F80802DA
:100DD00080B2ADF80800002507E004F20310415D81
:100DE00001AAE81C22F810106D1CD4F80802A842D1
:100DF000F3DCD4F80812CA1C01A9206802F02FFD08
:100E00000DF5017D30BD10B5C1F3072300F20312CB
:100E1000D0F808421355D0F80822521CC0F8082216
:100E200000F20312D0F808421155D0F80822521CE3
:100E3000C0F8082210BD10B500F20312D0F8084225
:100E40001155D0F80822521CC0F8082210BD70B508
:100E500006460C4615460020C6F808028221304698
:100E6000FFF7E9FFC4F307213046FFF7E4FFE1B2E3
:100E70003046FFF7E0FFC5F307213046FFF7DBFF01
:100E8000E9B23046FFF7D7FF3046FFF795FF70BD58
:100E90002DE9F04107460C46154600260020C7F80C
:100EA000080282213846FFF7C6FFC4F307213846FF
:100EB000FFF7C1FFE1B23846FFF7BDFF00BF04E016
:100EC000A95D3846FFF7B7FF761CA85D0028F7D16B
:100ED0003846FFF771FFBDE8F08100004FF0E021D8
:100EE000096921F004014FF0E0221161C21700EB03
:100EF0005272C2F3C702074B1A701946097801EB08
:100F00004102C2EBC1114FF6FF7202EAC101024A6F
:100F100011807047FC000020FE00002010B54FF447
:100F2000004000F041F840B14FF40041034800F0A8
:100F3000C9F94FF4004000F031F810BD0014014031
:100F400010B5042000F030F810B1042000F026F8AD
:100F500010BD10B5082000F027F810B1082000F0EF
:100F60001DF810BD10B5102000F01EF810B11020B3
:100F700000F014F810BD10B5202000F015F818B1DD
:100F8000202000F00BF808E04FF4007000F00CF89F
:100F900018B14FF4007000F001F810BD014908606D
:100FA0007047000014040140014600200022074B56
:100FB0001B6803EA0102054B14331B680B4013B195
:100FC0000AB1012000E00020704700000004014049
:100FD000002123498279002A3AD00A461268036820
:100FE0009A430B461A600A1D126803689A430B1D48
:100FF0001A60027911440A6803681A430A60184AA1
:101000000832126803689A43154B08331A601A1D98
:10101000126803689A43124B0C331A604279102A03
:101020000ED11A1F126803681A430D4B08331A6059
:101030001A1D126803681A43094B0C331A600DE03D
:101040000749427911440A6803681A430A6005E0B7
:10105000027911440A6803689A430A6070470000E5
:10106000000401400EB500214FF0006001F022FBAA
:101070004FF40040FFF792FF00208DF808000C208D
:101080008DF809004FF4004001900F21032000F07B
:1010900025F801208DF80A0001A8FFF799FF4FF409
:1010A000A06001F0FDFA28208DF8000001208DF8E5
:1010B00001008DF802008DF80300684601F0B8FACF
:1010C0000EBD282000F01F0201219140420992002C
:1010D00002F1E022C2F8001100BF704730B50022D3
:1010E0008B071C0F0F2303FA04F20B4B8C1053F8E1
:1010F00024309343084C8D1044F8253023468C103F
:1011000053F824308C07240F00FA04F42343024CD4
:101110008D1044F8253030BD080001402DE9F04124
:10112000024600250026002000230024002791F815
:1011300003C00CF00F0591F803C00CF0100CBCF1CB
:10114000000F03D091F802C04CEA050591F800C0E9
:10115000BCF1000F31D0146800202BE04FF0010CDF
:101160000CFA00F3B1F800C00CEA03069E4220D14D
:1011700083004FF00F0C0CFA03F7BC4305FA03FC95
:101180004CEA040491F803C0BCF1280F06D14FF0DB
:10119000010C0CFA00FCC2F814C00AE091F803C07C
:1011A000BCF1480F05D14FF0010C0CFA00FCC2F85D
:1011B00010C0401C0828D1D31460B1F800C0BCF1A5
:1011C000FF0F34DD546800202EE000F1080C4FF0D2
:1011D000010808FA0CF3B1F800C00CEA03069E42BD
:1011E00021D183004FF00F0C0CFA03F7BC4305FA32
:1011F00003FC4CEA040491F803C0BCF1280F05D1AC
:1012000000F1080C08FA0CF8C2F8148091F803C039
:10121000BCF1480F07D100F1080C4FF0010808FAA3
:101220000CF8C2F81080401C0828CED35460BDE8EA
:10123000F0810000F0B50A460023002400210025BB
:1012400000F00046B6F1004F02D11D4EF16901E0F9
:101250001B4E7168C0F3034583B200F44016B6F527
:10126000401F08D121F07061154E766826F0706637
:10127000134F7E6012E000F48016B6F5801F06D191
:10128000032606FA05F4A14341F0706106E0460D1D
:10129000360103FA06F6B14341F0706122B1460D02
:1012A000360103FA06F6314300F00046B6F1004F6E
:1012B00002D1034EF16101E0014E7160F0BD00000A
:1012C000000001400246002093680B400BB1012052
:1012D00000E000207047416170470161704700BF26
:1012E000FEE700002DE9F04105460E464FF0FF38BD
:1012F0004746A5F5A850214941F82060002414E094
:101300001E4850F82400012803D108F1010000B95B
:10131000A046C4F15900194951F82000012803D111
:10132000781C08B9C4F15907641C5A2C06DA08F174
:1013300001000028E4D0781C0028E1D016B9A5F5FA
:10134000A850471E00240DE0444506DBBC4204DCE7
:1013500001200A4941F8240003E00020074941F830
:101360002400641C5A2CEFDB002403E0204600F02C
:101370004DFA641C5A2CF9DBBDE8F081BC810020D9
:101380002DE9F041044600250027E079832833D178
:10139000617A207A41EA0025217BE07A41EA002740
:1013A0003946284600F0A6FDB5F5A85F07DB41F2F7
:1013B0005A50854203DC39462846FFF793FF3946E9
:1013C000284600F069F83946284600F06BFD39469A
:1013D000284600F06DFF012D1AD10C210D48FFF7B2
:1013E000D5FC0D480760002603E0304600F01AFCEB
:1013F000761C0B2EF9DB0BE0E079812808D1207AEE
:10140000032805D1E17AA07A41EA00200349086067
:10141000BDE8F081440100200400002030000020DD
:1014200030B50346A3F23F12D41702EB1474211116
:10143000174A126852B30B291BD0084617E0421C0A
:1014400002EB8202134C54F8222000EB8004114D71
:1014500045F82420421C02EB82022C4604EB820257
:10146000126900EB800405EB84042261401C0B2808
:10147000E5DB0022074CC4F8DC200024054AC2F852
:10148000EC40034A1268521E014C226030BD00003D
:101490007400002048A0002070B504460D46B4F545
:1014A000985F74DB41F21230844270DCA4F59850EE
:1014B000B54908600846006800EB8000B34A02EBBB
:1014C000C0012822B248FEF7BDFEAF480268521C98
:1014D0004FF44071AF48FFF7BAFCAD4800680E28E2
:1014E0006BD2DFE800F0070E15232A315C634D55FF
:1014F00046383F1CA8A24FF44471A648FFF7C8FC29
:101500005CE0A7A24FF44471A248FFF7C1FC55E08C
:10151000A5A24FF444719F48FFF7BAFC4EE0A4A285
:101520004FF444719B48FFF7B3FC47E0A2A24FF48D
:1015300044719848FFF7ACFC40E0A1A24FF444711D
:101540009448FFF7A5FC39E09FA24FF444719148FD
:10155000FFF79EFC32E09EA24FF444718D48FFF7E6
:1015600097FC2BE09CA24FF444718A48FFF790FC53
:1015700024E09BA24FF444718648FFF789FC1DE0EC
:1015800099A24FF444718348FFF782FC16E035E0DE
:1015900097A24FF444717F48FFF77AFC0EE096A2C1
:1015A0004FF444717B48FFF773FC07E094A24FF4BB
:1015B00044717848FFF76CFC00E000BF00BF74483E
:1015C00040F2023142687348FFF741FC704840F234
:1015D000033182686F48FFF73AFC6D4A0C324FF4D2
:1015E00041716C48FFF754FC694A16324FF4487158
:1015F0006848FFF74DFC0120834908608248006875
:1016000001286FD140F2013084426CD10E2D6BD293
:10161000DFE805F0070E18222C36404A545E6B7541
:101620007F895DA24FF444715A48FFF731FC85E091
:101630005BA24FF444715748FFF72AFC012054493C
:1016400008607BE058A24FF444715248FFF720FC39
:1016500002204F49086071E055A24FF444714D4893
:10166000FFF716FC0D204A49086067E052A24FF4CC
:1016700044714848FFF70CFC0320454908605DE0D1
:101680004FA24FF444714348FFF702FC0420404945
:10169000086053E04CA24FF444713E48FFF7F8FB5A
:1016A00005203B49086049E049A24FF4447139489C
:1016B000FFF7EEFB0B20364908603FE046A24FF4EF
:1016C00044713448FFF7E4FB0C203149086035E0F1
:1016D00043A24FF444712F48FFF7DAFB0A202C494C
:1016E00008602BE04EE02AE027E03FA24FF444716F
:1016F0002848FFF7CDFB0820254908601EE03CA2E2
:101700004FF444712348FFF7C3FB092020490860C8
:1017100014E039A24FF444711E48FFF7B9FB0620CC
:101720001B4908600AE036A24FF444711948FFF7DC
:10173000AFFB07201649086000E000BF22E040F23E
:101740000230844202D1124845601BE040F20A3068
:10175000844217D1012D0AD10B49096801EB81019F
:101760000A4A02EBC10028220949FEF76BFD01215C
:101770000848FFF70BFB0020234908600248006877
:1017800000F042F970BD0000F0000020C47E00208F
:1017900038A100204401002020202020202020000B
:1017A000505420202020200041505454202020005C
:1017B0004361436C3220200054542020202020001C
:1017C00046494220202020004F5642202020200061
:1017D0004154332D523120004154332D52322000D8
:1017E000B8CECBD8202020004644502D52312000C6
:1017F0004644502D5232200044442D5231202000C6
:1018000044442D5232202000F400002010B504463C
:10181000044850F8242004F5A8510348FFF717FBAB
:1018200010BD0000BC810020440100202DE9FC41D6
:1018300001260127002400BF5BE0C4EB041000EB8D
:1018400084102E4951F82060C4EB041000EB841082
:1018500001EB80004768701E00EBC001781E0D1878
:10186000C4EB041000EB8410244B03EB800005F55F
:10187000885142692248FFF7EAFAC4EB041000EBF2
:1018800084101E4951F820000A2190FBF1F03030FD
:10189000C0B28DF80000C4EB041000EB84101749AF
:1018A00051F820000A2190FBF1F201FB12003030C8
:1018B000C0B28DF801002D208DF8020030208DF887
:1018C0000300C4EB041000EB84100C4901EB800012
:1018D00000793030C0B28DF8040000208DF805008A
:1018E00005EB850505F590516A460548FFF7D0FAE6
:1018F000641C122CA1DBBDE8FC810000108A0020D2
:101900004401002010B5002457E004EB84002C496A
:1019100051F8200008284DD2DFE800F0040D161F12
:1019200028313A4340F23F2000EB041125A227481A
:10193000FFF7AEFA3FE040F23F2000EB041124A293
:101940002248FFF7A5FA36E040F23F2000EB0411F1
:1019500021A21E48FFF79CFA2DE040F23F2000EB49
:1019600004111FA21948FFF793FA24E040F23F2028
:1019700000EB04111CA21548FFF78AFA1BE040F2A5
:101980003F2000EB04111AA21048FFF781FA12E081
:1019900040F23F2000EB041117A20C48FFF778FA41
:1019A00009E040F23F2000EB041115A20748FFF7C1
:1019B0006FFA00E000BF00BF641C0C2CA5DB10BD5B
:1019C00048A00020202020202020000044010020EA
:1019D000505420202020000041505454202000006A
:1019E000545420202020000046494220202000009E
:1019F0004154332020200000464450202020000085
:101A0000444420202020000010B5044604EB84004C
:101A10005B4951F8300018B304EB840001EBC000BF
:101A20004068142806DB04F5985102225548FFF758
:101A30000EFA1BE004EB8400514901EBC000406842
:101A40000A2806DB04F5985101224E48FFF7FFF9FA
:101A50000CE004F5985103224A48FFF7F8F905E035
:101A600004F5985100224748FFF7F1F904EB840090
:101A7000434951F830000E287ED2DFE800F007100D
:101A8000192B343D6A747D6158464F224FF49950AA
:101A900000EB04113CA23B48FFF7FAF96DE04FF46C
:101AA000995000EB04113AA23648FFF7F1F964E0CF
:101AB0004FF4995000EB041137A23248FFF7E8F9D0
:101AC0005BE04FF4995000EB041135A22D48FFF76D
:101AD000DFF952E04FF4995000EB041132A229488B
:101AE000FFF7D6F949E04FF4995000EB041130A20A
:101AF0002448FFF7CDF940E04FF4995000EB041172
:101B00002DA22048FFF7C4F937E04FF4995000EBBD
:101B100004112BA21B48FFF7BBF92EE04FF499509C
:101B200000EB041128A21748FFF7B2F925E04FF4A3
:101B3000995000EB041126A21248FFF7A9F91CE006
:101B40004FF4995000EB041123A20E48FFF7A0F9BF
:101B500013E04FF4995000EB041121A20948FFF75C
:101B600097F90AE008E04FF4995000EB04111EA227
:101B70000448FFF78DF900E000BF00BF10BD000072
:101B8000C47E0020440100202020202020202000AE
:101B90005054202020202000415054542020200068
:101BA0004361436C32202000545420202020200028
:101BB00046494220202020004F564220202020006D
:101BC0004154332D523120004154332D52322000E4
:101BD0004644502D523120004644502D52322000B0
:101BE00044442D523120200044442D523220200004
:101BF00070B500240DE0200100F5C06506480068BE
:101C00002044064901EBC00229460548FFF740F988
:101C1000641C062CEFDB70BDE00000207800002083
:101C2000440100202DE9F04705461E4800682F18A2
:101C30002801C0EBC00000F50056C7EB071000EB11
:101C40008710194901EB800000F10802314617485E
:101C5000FFF71EF9012421E02801C0EBC00000F5C8
:101C6000005000EB0416C7EB071101EB87110E4A79
:101C700002EB810118310E4A12682244521E51F8BB
:101C800022000C4902F036FE814602F0FFFD80463C
:101C9000424631460548FFF7DAF8641C072CDBDBC7
:101CA000BDE8F087E4000020540300204401002038
:101CB000E000002000002041FEB505460C4600264D
:101CC00000BF93E0C5EB051000EB8510504901EB18
:101CD00080004C3006EB860150F82100A0427CD1F8
:101CE000082C7FD2DFE804F07E0415263748596AB5
:101CF00048A16846FEF79AFA6A464FF4AC61484834
:101D0000FFF7C6F847A240F26B514548FFF7C0F80D
:101D100069E046A16846FEF789FA6A464FF4AC616D
:101D20003F48FFF7B5F844A240F26B513C48FFF73B
:101D3000AFF858E042A16846FEF778FA6A464FF4D9
:101D4000AC613748FFF7A4F840A240F26B51344829
:101D5000FFF79EF847E03FA16846FEF767FA6A463C
:101D60004FF4AC612E48FFF793F83DA240F26B515F
:101D70002B48FFF78DF836E03BA16846FEF756FA90
:101D80006A464FF4AC612648FFF782F839A240F268
:101D90006B512348FFF77CF825E038A16846FEF731
:101DA00045FA6A464FF4AC611D48FFF771F836A258
:101DB00040F26B511A48FFF76BF814E034A1684603
:101DC000FEF734FA6A464FF4AC611548FFF760F845
:101DD00032A240F26B51124801E006E002E0FFF748
:101DE00057F800E000BF00BF0FE0761CC5EB051000
:101DF00000EB8510064901EB80004C3006EB8601B4
:101E000050F8210000287FF45DAF00BFFEBD000048
:101E100054030020202020205054202020200000A7
:101E200044010020505420200000000020202020E9
:101E300041505454202000004150545400000000F0
:101E40002020202054542020202000005454202002
:101E500000000000202020204649422020200000D1
:101E60004649422000000000202020204154332019
:101E700020200000415433200000000020202020BA
:101E8000464450202020000046445020000000001E
:101E900020202020444420202020000044442020F2
:101EA0000000000070B505460E46B5F5A06F0CD1D8
:101EB0000E480660FFF79CFE002403E02046FFF773
:101EC000B1FE641C0B2CF9DB0FE040F2015085429F
:101ED0000BD107480660FFF78BFE002403E0204685
:101EE000FFF7A0FE641C0B2CF9DB70BDE0000020A6
:101EF000E40000202DE9F04106468846E5480068E8
:101F0000801E00EBC007B6F5885F7CDB41F2111044
:101F1000864278DCE048006802281ED00221DF48B3
:101F2000FEF734FF0220DC490860002413E0E219C8
:101F3000C2EB021303EB8212D94B03EB8201C4EB19
:101F4000041202EB8412D74B03EB82004FF49E7213
:101F5000FEF778F9641C122CE9DBA6F58850C0EB7B
:101F6000001101EB8010CF4901EB8000406902288D
:101F70000AD0A6F58850C0EB001101EB8010C949CA
:101F800001EB8000406958B90121A6F58850C0EBEB
:101F9000001202EB8010C34A02EB800041612DE089
:101FA0000021A6F58850C0EB001202EB8010BD4A5C
:101FB00002EB8000416100251EE00021A6F588505B
:101FC000C0EB001202EB8010B64A02EB80004C30EE
:101FD00005EB850200EB82000161A6F58850C0EB9D
:101FE000001202EB8010AF4A02EB80004C3005EB90
:101FF000850240F822106D1C0C2DDEDBA6F5885002
:10200000C0EB001200E02EE002EB8010A54A02EBCC
:10201000800000F14C01F022A348FEF713F90025DF
:1020200005E0A2480068401CA04908606D1C05EB53
:1020300085009D4951F820000028F2D1FFF762FC8D
:10204000FFF7F4FBA6F58850C0EB001101EB801000
:10205000944901EB800000F108024FF480718F4831
:10206000FEF716FF13E1B6F5827F13DBB6F5857F29
:1020700010DCA6F203108D49096801EB81018A4A40
:1020800042F8210089480068401C88490860FFF731
:1020900039FCFCE0B6F58E7F5AD100243FE0C4EB5A
:1020A000041000EB84107F4901EB80004069012897
:1020B00034D1002514E0C4EB041202EB8412794BF6
:1020C00003EB82024C3205EB850302EB830005EB48
:1020D0008502754B03EB82011422FEF7B3F86D1CE9
:1020E0000C2DE8DB0220C4EB041101EB84116D4AD6
:1020F00002EB81014861C4EB041202EB8412694BCC
:1021000003EB8201E219C2EB021303EB8212644B70
:1021100003EB82004FF49E72FEF794F8641C122CBD
:10212000BDDB00250DE0002005EB85015E4A02EBDA
:102130008101086105EB850142F821005B490860D7
:102140006D1C0C2DEFDBFFF771FBFFF7DBFB9EE057
:10215000B6F58F7F07D101215048FEF717FE012009
:102160004D49086093E0B6F59F7F08DDB6F5F87F2E
:1021700005DA3046FFF754F9FFF7C4FB87E040F279
:10218000191086421AD1002413E0C4EB041000EBAE
:102190008410444901EB80004069022808D00120E6
:1021A000C4EB041101EB84113E4A02EB810148614A
:1021B000641C092CE9DBFFF739FB68E0B6F58D7F7D
:1021C0001AD1092413E0C4EB041000EB8410354944
:1021D00001EB80004069022808D00120C4EB041103
:1021E00001EB84112F4A02EB81014861641C122C1F
:1021F000E9DBFFF71BFB4AE040F21B10864214D1DB
:1022000000250DE0002005EB8501274A02EB810146
:10221000086105EB850142F82100244908606D1C26
:102220000C2DEFDBFFF76EFB31E040F21D10864214
:102230002DD1002413E0C4EB041000EB84101949E5
:1022400001EB80004069012808D10020C4EB041193
:1022500001EB8411134A02EB81014861641C122CCA
:10226000E9DB00250DE0002005EB85010E4A02EBBD
:102270008101086105EB850142F821000B490860E6
:102280006D1C0C2DEFDBFFF73DFBFFF7CFFABDE830
:10229000F0810000000000203000002044010020F8
:1022A00054030020108A002048A000207400002061
:1022B00070B504460D4640F2525084422EDB40F287
:1022C0005C5084422ADCA4F252501F490968084439
:1022D0001E49086008460068C0EB001101EB801041
:1022E0001B4901EB8000C06C18B30D211948FEF7A3
:1022F0004DFD0D20184908600C201849086013484E
:102300000068C0EB001202EB8010114A02EB800063
:10231000C16C0E480068FFF7CFFC14E040F25D503E
:10232000844207D10C210B48FEF730FD0C200A49EE
:10233000086008E040F26A50844204D1294603480C
:102340000068FFF7B9FC70BDE4000020F800002031
:1023500054030020440100203000002034000020FD
:1023600008B50121042000F0CFF947F21800ADF8BC
:10237000000010208DF8030003208DF8020069464C
:102380000648FEF7CBFE4FF400510448FEF7A5FFC8
:102390004FF480510148FEF7A0FF08BD0014014032
:1023A00010B51448006810BB134801F053FA1349E4
:1023B000134A126841F8220008460068482813D1E1
:1023C00008460F49096850F82100452806D1002029
:1023D0000B49086001200749086010BD08480068E3
:1023E000401C0749086002E000200549086000BF62
:1023F000F3E700004800002000480040B0890020BA
:102400007000002070B504460D462946204600F0B5
:102410007FF8204600F002F870BD000010B588B0CB
:1024200004464FF4C06000F03BF93748844207D1BE
:102430000121480600F048F914208DF8000009E059
:102440003248844206D140208DF800000121000569
:1024500000F03AF92046FEF7CBF805A8FEF7ADFBF1
:1024600001208DF801008DF802008DF80300684608
:1024700000F0DEF800208DF81A008DF81B008DF8B2
:102480001C008DF81D008DF81E008DF81F008DF8C2
:1024900016008DF8170002208DF8180001208DF825
:1024A00019000C20ADF8140005A92046FEF7CDF95F
:1024B0001548844203D100208DF80E0005E0134832
:1024C000844202D10E208DF80E0000208DF80F00FE
:1024D00001208DF810000020ADF80400ADF80600D2
:1024E000ADF80800ADF80A00ADF80C0001208DF839
:1024F000110001A8FEF710F9012202212046FEF783
:102500009BF908B010BD0000006400400068004066
:1025100038B504460D46002D3DD1404884421ED1B9
:102520000121042000F0F0F8E014ADF8000048208C
:102530008DF8030003208DF8020069463848FEF745
:10254000EDFDA014ADF8000018208DF80300032065
:102550008DF8020069463248FEF7E0FD5DE0314843
:1025600084425AD10121082000F0CEF8A014ADF821
:10257000000048208DF8030069462B48FEF7CEFD89
:102580006014ADF8000018208DF803006946264855
:10259000FEF7C4FD41E0012D3FD1204884421DD10A
:1025A0000121082000F0B0F801214FF4EA10FEF7F5
:1025B00041FEA015ADF8000048208DF803006946E3
:1025C0001948FEF7ABFD6015ADF8000018208DF836
:1025D000030069461448FEF7A1FD1EE0114884423D
:1025E0001BD10121082000F08FF801210F48FEF7D0
:1025F00021FE2020ADF8000048208DF80300694638
:102600000948FEF78BFD4020ADF8000018208DF83A
:10261000030069460448FEF781FD38BD00640040B0
:102620000008014000680040000C0140400020000C
:1026300070B5002100230F22C47804B3154C246820
:1026400004F4E064C4F5E064210AC1F10403CA4063
:10265000447804FA03F184781440214309010E4CB4
:102660000678A155047804F01F050124AC400578D4
:102670006D11AD0005F1E025C5F8004109E00478D1
:1026800004F01F050124AC40044D0678761145F88E
:10269000264070BD0CED00E000E400E080E100E0C9
:1026A00002490143024A1160704700000000FA0528
:1026B0000CED00E0024A0A400243024B1A607047E8
:1026C00080FFFF1F08ED00E029B1064AD2690243EE
:1026D000044BDA6104E0034AD2698243014BDA61B8
:1026E000704700000010024029B1064A12690243F7
:1026F000044B1A6104E0034A12698243014B1A61D8
:10270000704700000010024029B1064A9269024356
:10271000044B9A6104E0034A92698243014B9A6137
:1027200070470000001002402DE9F0410021002216
:10273000002500230026002400278C46DFF8608156
:10274000D8F8048008F00C0121B1042907D0082929
:1027500059D109E0DFF84C81C0F8008058E0DFF87B
:102760004881C0F8008053E0DFF83481D8F8048055
:1027700008F47012DFF82881D8F8048008F4803556
:10278000920C0D2A01D0921C00E0062235B9DFF828
:102790001C8102FB08F8C0F8008033E0DFF80081FC
:1027A000D8F82C8008F48036DFF8F480D8F82C8034
:1027B00008F00F0808F1010446B9DFF8EC80B8FB17
:1027C000F4F808FB02F8C0F800801BE0DFF8D080C6
:1027D000D8F82C80C8F3031808F10107DFF8C0808F
:1027E000D8F82C80C8F3032808F1020CDFF8B88071
:1027F000B8FBF7F808FB0CF8B8FBF4F808FB02F894
:10280000C0F8008004E0DFF89C80C0F8008000BFC2
:1028100000BFDFF88C80D8F8048008F0F0010909C7
:10282000DFF88C8018F80130D0F8008028FA03F81F
:10283000C0F80480DFF86880D8F8048008F4E0610C
:10284000090ADFF86C8018F80130D0F8048028FA03
:1028500003F8C0F80880DFF84880D8F8048008F44E
:102860006051C90ADFF8488018F80130D0F80480B8
:1028700028FA03F8C0F80C80DFF82480D8F8048028
:1028800008F44041890BDFF82C8018F80130D0F8AB
:102890000C80B8FBF3F8C0F81080BDE8F0810000B0
:1028A0000010024000127A0040787D0100093D00CE
:1028B000000100201001002070B5002401255EE019
:1028C000012659E0C4EB041000EB84102E4941F8B6
:1028D0002050C4EB041000EB841001EB8000466034
:1028E000C4EB041101EB8411274A02EB810101F1D1
:1028F0000800082225A1FDF7FEFC0A2095FBF0F058
:102900003030C1B2C4EB041000EB84101E4A02EB5D
:10291000800001740A2095FBF0F100FB115030306B
:10292000C1B2C4EB041000EB841002EB80004174D0
:102930000A2096FBF0F03030C1B2C4EB041000EB7B
:10294000841002EB800081740A2096FBF0F100FBFA
:1029500011603030C1B2C4EB041000EB841002EB04
:102960008000C1740020C4EB041101EB841102EB60
:1029700081014861641C761C092EA3DD6D1C06488C
:10298000006885429CDD70BD540300203230313731
:1029900031323235000000000000002070B50446DE
:1029A000002505E004F16800405D00B902E06D1CFF
:1029B000322DF7DB00BF062D40D194F86800313886
:1029C000062818D2DFE800F003070B170F130E20BC
:1029D0006149086010E001205F4908600CE00220B6
:1029E0005D49086008E003205B49086004E00420BA
:1029F0005949086000E000BF00BF5748A16EC160A0
:102A0000B4F86C1001823220534988753021524845
:102A1000C1756920015D504801766A20015D4E480C
:102A200041762F2181766B20015D4B48C1766C2069
:102A3000015D4948017732204749486046480068AF
:102A40000E286AD2DFE800F0070E15232A315B62F8
:102A50004D5446383F1C41A24FF444714148FEF7A3
:102A600017FA5BE040A24FF444713E48FEF710FABB
:102A700054E03FA24FF444713A48FEF709FA4DE0A2
:102A80003DA24FF444713748FEF702FA46E03CA2FB
:102A90004FF444713348FEF7FBF93FE03AA24FF49C
:102AA00044713048FEF7F4F938E039A24FF444712C
:102AB0002C48FEF7EDF931E037A24FF44471294874
:102AC000FEF7E6F92AE036A24FF444712548FEF7F6
:102AD000DFF923E034A24FF444712248FEF7D8F91D
:102AE0001CE033A24FF444711E48FEF7D1F915E003
:102AF00031A24FF444711B48FEF7CAF90EE030A230
:102B00004FF444711748FEF7C3F907E02EA24FF4C3
:102B100044711448FEF7BCF900E000BF00BF0E4846
:102B200040F2023142680F48FEF791F90A4840F23C
:102B3000033182680B48FEF78AF9074A0C324FF4DA
:102B400041710848FEF7A4F9034A16324FF4487160
:102B50000448FEF79DF970BD38A1002020202020F8
:102B6000202020004401002050542020202020005C
:102B700041505454202020004361436C32202000F7
:102B800054542020202020004649422020202000AC
:102B90004F564220202020004154332D5231200036
:102BA0004154332D52322000B8CECBD82020200003
:102BB0004644502D523120004644502D52322000C0
:102BC00044442D523120200044442D523220200014
:102BD0002DE9F0474FF00044A1465549204601F049
:102BE000B3FD544908605449484601F0ADFD5149D0
:102BF0004860086801F07CFD07464FF033324F4BC8
:102C000001F0C4F8054601F08FF84A49886008468B
:102C10004068C860086801F06BFD07464FF033322A
:102C2000474B01F0B3F8054601F07EF841490861D1
:102C3000084640684861086801F05AFD07464FF0B1
:102C40006632404B01F0A2F8054601F06DF83949B3
:102C5000886108464068C86188693B4901F074FD95
:102C600034490862084640684862086A374901F0FA
:102C70006BFD3049886208464068C86208680021D8
:102C800001F062FD324908602A494868314901F083
:102C90005BFD2F494860086801F02AFD07460022C5
:102CA0002D4B01F073F8054601F03EF82849886085
:102CB00048684FF0834101F047FD2549C8601D4930
:102CC0000868264901F040FD25490860194948680F
:102CD000244901F039FD2249486016490868224913
:102CE00001F032FD2149086012494868204901F08D
:102CF0002BFD1E4948600F4908681E4901F024FD5C
:102D00001D4908600B4948681C4901F01DFD1A491E
:102D100048601B49204601F017FD1A490860064922
:102D2000484601F011FD17494860BDE8F0870000F2
:102D3000000060410C8800200000504133F34A40FD
:102D400033F35A40663664400000404200001042AF
:102D5000FC8700200000F8410080394000006C42F0
:102D6000080000200000284200006A4310000020F4
:102D700000005C42000048431800002000008A4226
:102D80000080A2432000002010B500F001F810BD23
:102D90000CB50020019000903F48006840F480305E
:102DA0003D49086000BF3C48006800F400300090D6
:102DB0000198401C0190009818B90198B0F5A06FD7
:102DC000F1D13548006800F4003010B101200090C6
:102DD00001E000200090009801285CD12F48006895
:102DE00040F010002D4908600846006820F00300FC
:102DF00008600846006840F0020008602648406805
:102E0000254948600846406848600846406840F4E4
:102E1000806048600846C06A214908401E49C8626F
:102E20000846C06A1F4908431B49C8620846006833
:102E300040F08060086000BF1748006800F0006044
:102E40000028F9D01448406820F47C1012494860EA
:102E50000846406840F4E81048600846006840F0C2
:102E60008070086000BF0C48006800F00070002807
:102E7000F9D00948406820F0030007494860084637
:102E8000406840F00200486000BF0348406800F01E
:102E90000C000828F9D10CBD0010024000200240AF
:102EA00000F0FEFF4406010010B51648006840F02F
:102EB0000100144908600846406813490840114958
:102EC000486008460068114908400E4908600846F5
:102ED000006820F4802008600846406820F4FE0066
:102EE00048600846006820F0A05008604FF47F005A
:102EF00088600020C862FFF747FF4FF00060044978
:102F0000086010BD001002400000FFF0FFFFF6FE59
:102F100008ED00E02DE9F0410121B64800F095F9F7
:102F2000002879D0B448006858B90821B348FEF7A2
:102F3000D4F91021B148FEF7D0F90120AE4908605C
:102F40000AE00821AD48FEF7C6F91021AB48FEF7AC
:102F5000C2F90020A8490860A9480068401CA84997
:102F600008600846006803280FD100200860A548C3
:102F70004FF400710268A448FDF769FFA34840F2CE
:102F800002210268A048FDF762FFA1480068401CCA
:102F90009F490860084600683C2807DB9D48006898
:102FA000401C9C49086000209949086099480068C5
:102FB0003C2807DB98480068401C974908600020BF
:102FC00094490860002713E007EB4700934911F884
:102FD000200001280BD107EB470001EB800040687F
:102FE000401C07EB47018D4A02EB810148607F1CC2
:102FF0000C2FE9DB8A480068801E00EBC004ECE07F
:10300000C4EB041000EB8410864901EB800040699A
:1030100001287CD10025D0E0EAE0C4EB041000EBED
:103020008410804901EB80004C3005EB850100EBFA
:103030008100466806EB4600784911F82000012817
:1030400045D1C4EB041000EB8410764901EB8000FD
:103050004C3005EB850100EB81008068032846D1E8
:1030600006EB46006D4901EB8000406806EB460127
:103070006A4A02EB81018968884228DB06EB460137
:1030800002EB8100FDF73CFEC4EB041000EB841062
:10309000644901EB80004C3005EB850150F82100BC
:1030A00000EB400101EBC0005F4901EB8000006ACA
:1030B00070B90621C4EB041000EB8410594A02EBEE
:1030C00080004C3005EB850200EB8200816073E0EC
:1030D0000421C4EB041000EB8410524A02EB800080
:1030E0004C3005EB850200EB8200816064E0C4EBAC
:1030F000041000EB84104B4901EB80004C3005EBD1
:10310000850100EB81008068052824D100E063E0A0
:1031100006EB4600414901EB8000406806EB4601A2
:103120003E4A02EB81018968884245DB06EB460195
:1031300002EB8100FDF7E4FD0621C4EB041000EB77
:103140008410384A02EB80004C3005EB850200EB1E
:103150008200816030E0C4EB041000EB8410314940
:1031600001EB80004C3005EB850100EB81008068AD
:10317000012821D106EB4600284901EB8000406878
:1031800006EB4601254A02EB81018968884213DB80
:1031900006EB460102EB8100FDF7B2FD0221C4EB14
:1031A000041000EB84101F4A02EB80004C3005EB4A
:1031B000850200EB820081606D1CC4EB041000EB03
:1031C0008410184901EB80004C3005EB850150F864
:1031D000210000287FF421AF641C1148006800EB37
:1031E000C000A0423FF70CAF0121024800F01EF8DA
:1031F000BDE8F081000C00405400002000140140A4
:1032000058000020600000204401002064000020DD
:1032100044000020400000203C0000206C8800207A
:10322000000000205403002054830020CA4302827F
:10323000704721B1028842F00102028004E0028856
:103240004FF6FE731A400280704730B502460020E8
:1032500000230024158A05EA0103958905EA010483
:1032600013B10CB1012000E0002030BD1AB18389F8
:103270000B43838102E083898B4383817047000085
:103280000EB501210820FFF71FFA42F20F70ADF8CA
:10329000040041F61F40ADF800000020ADF8060024
:1032A000ADF802006946084800F02AF801210648F6
:1032B000FFF7BCFF012211460348FFF7D7FF0121AA
:1032C0000148FFF7B6FF0EBD000C004008B5002115
:1032D0004FF00060FFF7EEF94FF4A060FFF7E0F960
:1032E00032208DF8000000208DF8010001208DF8BB
:1032F00002008DF803006846FFF79AF908BD000048
:10330000002202881D4B98420ED01D4B98420BD0D4
:10331000B0F1804F08D01B4B984205D01A4B984211
:1033200002D01A4B984204D14FF68F731A404B8843
:103330001A43174B984207D0164B984204D04FF6C9
:10334000FF431A40CB881A4302808B8883850B8801
:1033500003850A4B98420BD0094B984208D00E4B7C
:10336000984205D00D4B984202D00D4B984201D1A6
:103370000B7A03860123838270470000002C0140F2
:10338000003401400004004000080040000C0040F0
:103390000010004000140040004001400044014083
:1033A00000480140B4212C4801640021016301213F
:1033B0004164782181640021C16401653C21C163BD
:1033C000B421C1660021C165022101673C2141672A
:1033D0000D2181673C21C1678166B421C0F8981036
:1033E0000021C0F888100321C0F89C107821C0F893
:1033F000A0100021C0F8A410C0F8A8103C21C0F80B
:103400009410B421C0F8C4100021C0F8B4100521F4
:10341000C0F8C8106C21C0F8CC100421C0F8D0103E
:103420003C21C0F8D4100C21C0F8C010B421C0F861
:10343000F0100021C0F8E0100B21C0F8F4108C212E
:10344000C0F8F8100021C0F8FC10C0F800114621A7
:10345000C0F8EC10704700005483002010B540F213
:103460002551134800F03BF970B11248FDF74DFCAF
:10347000104890F80C02012806D100200D4981F86F
:103480000C020846FDF77CFF0821094800F01AF9F4
:1034900010B1074800F0DEF940F22771044800F04F
:1034A0001EF918B17921024800F0F2F910BD0000B0
:1034B000004C00404401002010B540F22551134853
:1034C00000F00DF970B11248FDF71FFC104890F89C
:1034D0000C02012806D100200D4981F80C02084693
:1034E000FDF74EFF0821094800F0ECF810B107483D
:1034F00000F0B0F940F22771044800F0F0F818B17C
:103500007921024800F0C4F910BD000000500040CD
:103510004401002010B540F225510B4800F0DFF8BF
:103520000821094800F0CEF810B1074800F092F9E0
:1035300040F22771044800F0D2F818B1792102480E
:1035400000F0A6F910BD00000038014010B540F2AF
:1035500025511F4800F0C3F830B31E48FCF7B0FFF8
:103560001C4890F8A00001281ED13220194981F88A
:1035700068003121174880F86910372180F86A10F7
:10358000302180F86B10382180F86C10332180F8DE
:103590006D10002180F86E10FFF700FA00200D4931
:1035A00081F8A000C1F89C000821094800F08AF8C1
:1035B00010B1074800F04EF940F22771044800F0BE
:1035C0008EF818B17921024800F062F910BD0000B0
:1035D000004400400C8900202DE9F04740F22551BD
:1035E0002F4800F07CF8002845D0FEF7D9FE2D4882
:1035F000006801283FD12C48C0682B49896840EAFF
:103600000124294880692849496940EA012526485A
:10361000406A2549096A40EA0126B4F57A4F03DD7C
:10362000A4F57F40FF3800E020460446B5F57A4F08
:1036300003DDA5F57F40FF3800E028460546B6F5D6
:103640007A4F03DDA6F57F40FF3800E0304606469E
:10365000304601F037F90746284601F033F9804635
:10366000204601F02FF981463A464146FCF7CAFE52
:1036700000200C4908600821094800F023F810B127
:10368000074800F0E7F840F22771054800F027F8F6
:1036900018B17921024800F0FBF8BDE8F08700007E
:1036A0000048004048000020B089002021B18289F4
:1036B00042F40052828104E082894DF6FF731A4081
:1036C0008281704702460020B1F5007F00D100BF23
:1036D00013880B400BB1012000E00020704770B54B
:1036E0000246002400230025002040F66A16B1425D
:1036F00000D100BFC1F3421501F01F03012606FAF5
:1037000003F3012D02D19689334006E0022D02D148
:10371000168A334001E0968A33400C12012606FADD
:1037200004F41688344013B10CB1012000E00020ED
:1037300070BDF0B50346002400260025002040F6A9
:103740006A17B94200D100BF1846C1F3421401F014
:103750001F06012707FA06F5012C01D10C3004E001
:10376000022C01D1103000E014301AB107682F4349
:10377000076002E00768AF430760F0BD2DE9F0473E
:1037800086B005460E460024A24600BFA14600278B
:10379000B08900B100BF2F462C8A4CF6FF70044060
:1037A000F08804432C82AC894EF6F3100440B088B4
:1037B00031890843718908430443AC81AC8A4FF6D0
:1037C000FF400440B0890443AC8201A8FEF7ACFF7F
:1037D0001F48874202D1DDF810A001E0DDF80CA0FF
:1037E000A88900F4004040B10AEBCA0000EB0A10BF
:1037F00031684900B0FBF1F807E00AEBCA0000EBC2
:103800000A1031688900B0FBF1F86420B8FBF0F0D1
:1038100004012009642101FB1089A88900F40040FB
:1038200040B1322000EBC900B0FBF1F000F007001E
:10383000044308E0322000EB09106421B0FBF1F0F2
:1038400000F00F0004432C8106B0BDE8F0870000B3
:103850000038014001468888C0F3080070472DE910
:10386000F04107460D461646002400BF0CE035F82F
:103870001410384600F00CF800BF80213846FFF7DE
:1038800021FF0028F9D0641CB442F0DBBDE8F081D0
:10389000C1F308028280704710B586B0044601214A
:1038A0001120FEF731FF0121C804FEF70DFF18209B
:1038B0008DF807004FF48060ADF8040003208DF808
:1038C000060001A91748FDF729FC04208DF8070020
:1038D0004002ADF8040001A91248FDF71FFC029454
:1038E0000020ADF80C00ADF80E00ADF81000ADF8FA
:1038F00014000C20ADF8120002A90B48FFF73EFFA0
:10390000002240F227710848FFF713FF012240F21E
:1039100025510548FFF70DFF01210348FFF7C6FEBB
:1039200006B010BD00100140004C004008B54FF03B
:1039300000610846FEF7BEFE4FF4A060FEF7B0FE41
:1039400034208DF8000001208DF801008DF8020070
:103950008DF803006846FEF76BFE08BD10B586B013
:10396000044601211120FEF7CFFE01210805FEF7D4
:10397000ABFE18208DF807004FF48050ADF804001E
:1039800003208DF8060001A91748FDF7C7FB0420A6
:103990008DF80700ADF8040001A91448FDF7BEFB3F
:1039A00002940020ADF80C00ADF80E00ADF8100048
:1039B000ADF814000C20ADF8120002A90C48FFF776
:1039C000DDFE002240F227710948FFF7B2FE012216
:1039D00040F225510648FFF7ACFE01210448FFF7ED
:1039E00065FE06B010BD000000100140001401404B
:1039F0000050004008B54FF000610846FEF75AFE3F
:103A00004FF4A060FEF74CFE35208DF80000012039
:103A10008DF801008DF802008DF803006846FEF76E
:103A200007FE08BD1FB50446012144F20100FEF760
:103A30006BFE01210420FEF767FE1648006820F4A3
:103A40007F60144908600846006840F4966008608A
:103A500000940020ADF80400ADF80600ADF80800B1
:103A6000ADF80C000C20ADF80A0069460A48FFF7D3
:103A700085FE002240F227710748FFF75AFE012217
:103A800040F225510448FFF754FE01210248FFF798
:103A90000DFE1FBD040801400038014008B54FF07D
:103AA00000610846FEF706FE4FF4A060FEF7F8FD41
:103AB00025208DF8000001208DF801008DF802000E
:103AC0008DF803006846FEF7B3FD08BD1FB5044638
:103AD00001214804FEF7F8FD01212120FEF714FE24
:103AE00001210820FDF7A6FB1648006820F07F6042
:103AF000144908600846006840F096600860009429
:103B00000020ADF80400ADF80600ADF80800ADF8EF
:103B10000C000C20ADF80A0069460B48FFF72EFE9A
:103B2000002240F227710848FFF703FE012240F20D
:103B300025510548FFF7FDFD01210348FFF7B6FDBC
:103B40001FBD0000001401400044004008B54FF0C4
:103B500000610846FEF7AEFD4FF4A060FEF7A0FD41
:103B600026208DF8000001208DF801008DF802005C
:103B70008DF803006846FEF75BFD08BD10B586B002
:103B8000044601212120FEF7BFFD01218804FEF734
:103B90009BFD01211F48FDF74DFB4FF48070ADF8F0
:103BA000040003208DF8060018208DF8070001A9F5
:103BB0001948FDF7B3FA4FF40070ADF8040048203F
:103BC0008DF8070001A91448FDF7A8FA0294002017
:103BD000ADF80C00ADF80E00ADF81000ADF8140013
:103BE0000C20ADF8120002A90C48FFF7C7FD002217
:103BF00040F227710948FFF79CFD012240F2255150
:103C00000648FFF796FD01210448FFF74FFD06B077
:103C100010BD0000300014000014014000480040B6
:103C200008B54FF000610846FEF744FD4FF4A06070
:103C3000FEF736FD27208DF8000001208DF80100E9
:103C40008DF802008DF803006846FEF7F1FC08BD10
:103C50002E482F4908602F482F490860FEF72CFE98
:103C6000FEF7B6FFFFF79EFB4FF4E130FFF7DAFEF9
:103C7000FFF714FF4FF41650FFF728FFFFF766FF1A
:103C80004FF4E130FFF77AFFFFF7CAFF4FF4E1305E
:103C9000FFF702FEFFF74AFE4FF4E130FFF75EFE4A
:103CA000FFF7A8FE00211D48FEF7ACFB01221B49CF
:103CB0001B48FCF7EDFEFFF7E3FAFFF707FBFDF704
:103CC000D1F9FDF7FEF94820FDF708F9FEF748FBAA
:103CD0000020144908600A230022F8211048FCF74C
:103CE0009BFE00BF0F4800680028FBD000200D4954
:103CF000086001230022F8210948FCF78DFE00BF6F
:103D0000084800680028FBD000BFFEE700500040D4
:103D100044010020004400400C8900200064004061
:103D2000140100202800002021F00042A2F160527E
:103D3000B2F5801F01F0004328BFD2F17F6C0BD990
:103D40005FEA001C43EAC20242EB507018BF7047A2
:103D500028BF20F001007047B2F5801FBCBF184695
:103D600070474FEA410C1CF5001F02D2084600F0D4
:103D700088BE70B500F03CFB00000089FFF7F6BF7D
:103D80004FF00040A0F580007047000010B591EAA8
:103D9000030F48BF83F0004300F1C883841A71EB1E
:103DA000030C05D2121943EB0C03001B61EB0C0151
:103DB000DFF824E14FEA1154A4EB135C1EEA430F31
:103DC00018BF9EEA445F73D023EA0E03DCF1200E95
:103DD00021EA045143F4801332D322FA0CFE10EB93
:103DE0000E0023FA0CFE41EB0E01CCF1200E03FA7B
:103DF0000EFE10EB0E0051F10001B1F5801FCCF169
:103E0000200E32D201EB045112FA0EF2BDE810403E
:103E100058BF7047401C38BF5FEA420218BF704766
:103E2000002814BF20F0010041F100014FEA4103D6
:103E300013F5001F38BF7047A1F1C04100F026BB49
:103E4000012A43EB0302ACF1200CDCF11F0E32BF60
:103E50004FF0000E23FA0CF310EB030041EB04517A
:103E6000B4EB115FD0D0A1EB045101F580114908EA
:103E70005FEA300001EB04510ED350F1000038BF6F
:103E800012FA0EFE08D1BDE81040C9E7401C38BF49
:103E90005FEA4202CAD1C3E7BDE810404FEA4103DE
:103EA00013F5001F38BF7047A1F1C04100F0EEBA12
:103EB0009EEA445F08D011EA5E0FBDE8104004BFDF
:103EC00001F0004100207047BDE8104070B500F0DF
:103ED0008FFA00BF64FBBE3E0000E0FF491058BFF0
:103EE000C1F140415B1058BFC3F140438B42EFF337
:103EF000008070472DE9C04130B4DFF8A0C23CEA31
:103F0000111418BF3CEA131400F0EC8081EA030599
:103F10001CEA111444EAD57418BF1CEA131500F00A
:103F2000C780A4EB05044FF0004545EAC12145EAEE
:103F3000C32341EA505143EA525304F17F7499423A
:103F400004F500344FEAC0204FEAC22208BF904275
:103F500000F09C804FEA13650FF24016765D4FEA41
:103F6000134506FB05F7C7F1807706FB07F74FEA15
:103F7000D737A7FB03687642C8F58038A7FB06CE83
:103F800038BFA8F1010807FB08E64FF0000EA6FBBA
:103F9000028CE6FB03CEDCF1000CCEF1004E38BF04
:103FA000AEF1010EA6FB0C584FF000074FF00005D4
:103FB000E6FB0E87A1FB08C6A0FB07CE16EB0E069C
:103FC00045F10005E1FB076515F1E04E7EBFA4F564
:103FD00080345FEA46066D4116F1800745F1000521
:103FE0004FEA17274FEA066647EA0567A6F1DE465D
:103FF000B6F1805F4FEA15251FD9384624F0010C31
:1040000005EBC471BCF1FE6F01EB0C1102D8F0BCE2
:10401000BDE8008124425CBF01F5801E9EEAC47F9A
:1040200002D4F0BCBDE80081244238D4F0BCA1F138
:10403000C041BDE8004100F029BA4FEAD22242EA6D
:1040400043524FEAD323A7FB02864FEAD02040EA2F
:10405000415007FB03661EEA0E0F4FEAD12105FB14
:10406000026658BFA6EB0056B6EB00564FEA520E5A
:104070004EEAC37E18EB0E0E56EB530EBDD518EB71
:1040800002085E417F1C55F10005B6E74FF480152C
:104090004FF000074FF000064FF00008ADE7F0BC0E
:1040A0004FF0000001F1C04101F00041BDE8008186
:1040B00011EA0C1F0CEA131500D00CE013EA0C1FD8
:1040C00000F025804FF00000F0BC81EA030101F010
:1040D0000041BDE80081F0BCBDE8004181EA030178
:1040E00000F0D4B9F0BCBDE8004170B500F080F933
:1040F000097EFC3E00F007B881EA03014FF00000A2
:1041000001F00041704781EA030100F0BFB9F0BC43
:10411000BDE800414FF0000021497047FFFDFBF969
:10412000F7F5F4F2F0EEEDEBE9E8E6E4E3E1E0DEEA
:10413000DDDBDAD8D7D5D4D3D1D0CFCDCCCBCAC85C
:10414000C7C6C5C4C2C1C0BFBEBDBCBBBAB9B8B783
:10415000B6B5B4B3B2B1B0AFAEADACABAAA9A8A876
:10416000A7A6A5A4A3A3A2A1A09F9F9E9D9C9C9B44
:104170009A999998979796959594939392919190EF
:104180008F8F8E8E8D8C8C8B8B8A89898888878780
:104190008685858484838382828181800000FF07F5
:1041A0000000F87F4FEA1153A3F58063D3F11E039B
:1041B000A8BFD3F1200C08DB4FF0004242EAC12235
:1041C00052EA505232FA03F0704709420BD4102BD6
:1041D000C4BF0020704703F5787CBCF1FF3F05D0D9
:1041E0004FF0FF3070474FF00000704770B500F09F
:1041F000FFF800BF4992248000207047F0E7B0FA32
:1042000080F310FA03F10AD0C3F11D0303F58063B4
:104210004FEA41504FEA035202EBD12170474FF071
:104220000000704751EA030C17D41CF5801F58BFDB
:10423000BCF5801F00F10680994218BF704708BF87
:104240009042704707D711F5801F58BF13F5801FA4
:1042500019D499427047894270471CF5801F08D5D0
:10426000BCF5801FF7D58B4218BF704708BF82424C
:1042700070474FF4001C1CEB410F38BF1CEB430F81
:1042800001D28B42704770B500F0B2F89224490019
:104290004FF000514FF08053FFF720BEDFF848C1C8
:1042A00070B51CEA111E1EBF1CEA13159EEA0C0F06
:1042B00095EA0C0F00F06F8081EA030423EA4C13A7
:1042C0004EEAD47E21EA4C1141F4801143F480136C
:1042D000AE44A1FB024CA0FB0365AEF17F7E361914
:1042E00055EB0C05A1FB034C4CF10003A0FB021C99
:1042F00016EB0C06654153F10003094218BF46F066
:10430000010613F4007F0BD14FEA03314FEA053069
:10431000340341EA155140EA16506FF003020AE0F7
:104320004FEAC3214FEAC520F40241EA555140EA61
:1043300056506FF0020202EB2E4201EB025585EA65
:10434000CE710AD05FEA440C18BF24F0004450F14B
:10435000000041F1000120EAD47040F2FE7C624589
:1043600000D270BDA84214BF4FF080444FF04044CB
:10437000002E08BF0024BEF1806FA8BFA1F1C0418C
:10438000BDE8704080F282804FF0000001F1C04132
:1043900001F0004170479EEA0C0F0CEA131518BF9C
:1043A00095EA0C0F06D04FF0000081EA030E0EF0E4
:1043B000004170BD00F01CF88900013E00F007B814
:1043C00000F009B84FEA430C5FEA5C5C08D081EA70
:1043D000030100F05BB84FEA410C5FEA5C5CF6D188
:1043E0004FF00000014970470000FF070000F87F10
:1043F0000EF1020E2EF0030E5EF8046B364205D469
:10440000012A43EB030515F5001F12D8012841EBE3
:10441000010C1CF5001F0CD80ED14FEAD17C15F50C
:10442000001F0CEB4C0C0CF1020C08BF4CEBD37CC6
:1044300004E04FF0080C01E04FEAD37C0CEB4C0594
:1044400026FA05F606F00706B6F1040C06D20EEBC6
:10445000860CBDE870404CF0010C6047DFE80CF0C2
:10446000090B02024FF000414FF00000A1F50021BE
:1044700070BD19461046012851EB010418BFD4F550
:10448000001484BF002001F0004170BD0808A0F5B1
:1044900000114FEA3101704753EA010C17D41CF5A3
:1044A000801F58BFBCF5801F00F106808B4218BFEB
:1044B000704708BF8242704707D713F5801F58BF67
:1044C00011F5801F19D48B4270479B4270471CF531
:1044D000801F08D5BCF5801FF7D5994218BF7047DB
:1044E00008BF904270474FF4001C1CEB430F38BFCD
:1044F0001CEB410F01D2994270470FB40CBC03BCB6
:10450000FFF7C1BE91EA030F10B581F000413FF5FE
:1045100045AC83F0004300F009B8000010B591EA03
:10452000030F48BF83F000433FF538AC841A71EBAA
:10453000030C07D212198CF0004C43EB0C03001B48
:1045400061EB0C01DFF8A4E14FEA1154A4EB135C1A
:104550001EEA430F18BF9EEA445F00F0B08023EAD2
:104560006E03524221EA0451C3EB6E0338BF5B1E57
:10457000DCF1200E25D322FA0CFE10EB0E0043FADC
:104580000CFE41EB0E01CCF1200E03FA0EFE10EBF7
:104590000E0051F10001CCF1200E29D412FA0EF2D6
:1045A00001EB0451BDE8104058BF7047401C1CBFD0
:1045B000B2F1004F704700280CBF491C20F00100E9
:1045C000704712EB020E43EB030218BF4FF0010ECF
:1045D0004EEA4202ACF1200CDCF11E0E54D943FA33
:1045E0000CFE10EB0E0051F1FF31CCF11E0ED5D5B3
:1045F0000EF1010E12FA0EFE404141EB010101EBFA
:10460000445C5FEA5C5C10D910EBDE7001EB045196
:1046100038BFBEF1004FBDE8104018BF70470028FA
:104620000CBF491C20F00100704730D24FEAD42C57
:1046300011F5001124F400641BD0B1FA81F20B3A99
:10464000A41AA41ED2F12003914030FA03F31943B7
:10465000904001EBCC71002C01EB0451BDE81040FF
:10466000A8BF704701F1C0414FF0000001F00041C8
:104670007047B0FA80F310FA03F100D110BDE41ACC
:10468000173C4805C90AE4E701EB045110BD491085
:1046900001EB0451BDE810404FEA300002E04FF05A
:1046A000000170474A0008BF0042F8D0B2F5001F71
:1046B00028BF704701F000414FF0000070479EEAAC
:1046C000445F07D011EA5E0FBDE8104004BF00212F
:1046D00000207047BDE8104070B5FFF789FE00BFAD
:1046E00040DFF63E83F00041104670470000E0FFD7
:1046F00043004FEAD30C4FEA3C0C43401FBF400736
:104700000CF1605113F0FE4F70471CF0006F03D1A5
:1047100000200CF0004170470CF0004343EA507059
:1047200010B540EACC0000F066F900BF000000922E
:104730004FEA0001FFF7AABE4FF000414FF0000022
:10474000A1F500217047000090EA010F48BF81F0F9
:10475000004100F1A281421A3CBF801A89184FEA39
:10476000D0524FF07F4C1CEA410FA2EBD15318BF3F
:104770009CEA026F00F03B804FF0004C4CEA0020B6
:104780004CEA012121FA03FC10EB0C0C1ED202F1C1
:10479000FF325FEA1C2040EBC25038BF70471CF06C
:1047A0007F0F4FEA400C18BFBCF17F4F38BF7047F6
:1047B000C3F12003994008BF20F00100BCF17F4FF6
:1047C00038BF7047A0F1C04000F05BB94FEA3C0031
:1047D000000A40EBC25028BF1CF0FF0F4FEA400C0C
:1047E000E6D018BFBCF17F4F38BF7047EAE79CEABC
:1047F000026F05D010EA5C0F08BF00F00040704760
:1048000010B500F0F8F800BF64FBBE3E401058BF82
:10481000C0F14040491058BFC1F140418142EFF31F
:104820000080704750EA010C00F113801CF5000F66
:1048300058BFBCF5000F01D48842704707D710F568
:10484000000F58BF11F5000F15D4884270478942F8
:1048500070471CF5000F04D5BCF5000FF7D5814259
:1048600070474FF0807C1CEB400F38BF1CEB410FB2
:1048700001D28142704710B500F0BDF89224490082
:104880004FF000504FF08051FFF7C0BF41000B0EBA
:10489000D3F19E0208D950F400034FEA032323FA10
:1048A00002F048BF4042704710B500F0A4F800BFC6
:1048B00049922480002070476FF0004282EA200075
:1048C0007047000010F0004148BF4042B0FA80F34A
:1048D00010FA03F2C3F19D030BD051EAC35101EB6F
:1048E0001220530638BF704700F1010008BF20F0C6
:1048F000010070474FF47F0C1CEAD0121EBF1CEA67
:10490000D11392EA0C0F93EA0C0F00F0478090EA63
:10491000010F48BF42F480724FF0004C4CEA002077
:104920004CEA012102EB0302A0FB0113A2F50002F5
:10493000002918BF43F001035B0028BF4FEA33038F
:1049400042EB22425FEA132C4CEBC2502EBFBCEB71
:10495000436FB2F57C0F70474FEA036CBCF1004F18
:1049600008BF20F00100B2F57C0F38BF70470BD5AF
:1049700082F0FF0212F5803FC8BF704700F1C040CF
:10498000D8BF00F00040704700F5000C5FEA4C0C07
:1049900048BF7047B0F1C04000F073B890EA010F13
:1049A0000CEAD11348BF42F48072624538BF6345B8
:1049B00004D280EA010000F00040704710B500F01A
:1049C0001AF800BF8900013E00F007B800F009B8EE
:1049D0005FEA410C5FEA1C6C08D080EA010000F03D
:1049E00050B85FEA400C5FEA1C6CF6D14FF0004013
:1049F000A0F5800070470EF1020E2EF0030E5EF857
:104A0000044B244204D44FEA4102B2F17F4F11D843
:104A10004FEA4003B3F17F4F0CD80ED14FEAD07C60
:104A2000B2F17F4F0CEB4C0C0CF1020C08BF4CEBBD
:104A3000D17C04E04FF0080C01E04FEAD17C0CEB94
:104A40004C0324FA03F404F00704B4F1040C06D276
:104A50000EEB840CBDE810404CF0010C6047DFE821
:104A60000CF0070802024FF00040A0F5800010BDD6
:104A70000846420018BFD2F1807288BF00F00040A3
:104A800010BDFF2141EAD050C005704790EA010FE8
:104A900048BF81F000413FF55EAE421A04D882F073
:104AA0000042A0EB020011444FEAD0524FF07F4C7D
:104AB0001CEA410FA2EBD15318BF9CEA026F4AD007
:104AC0004FF0004C4CEA00204CEA012121FA03FC93
:104AD000B0EB0C0C0FD412F0FE0F36D05FEA4C0096
:104AE0001DD5001240EBC25038BF70471CF03F0F7D
:104AF00018BF70470BE0A2F101025FEA1C2040EBF7
:104B0000C25038BF70471CF07F0F18BF7047C3F109
:104B10002003994014BF401E20F001007047800818
:104B20004FEA122308BF7047B0FA80FCA2EB0C02D8
:104B3000CCF1280C60FA0CF093EA122F04BF00EBC2
:104B4000C25070474FEAC3707047130A5FEADC1027
:104B500008BF7047F6E79CEA026F04D010EA5C0FCA
:104B600008BF0020704710B5FFF745FF40DFF63E55
:104B700081F0004070470000984B000800000020C2
:104B8000140100008C010008AC4C00081401002046
:104B9000ACC00000A80100080200000000000000F6
:104BA0000000000000000000000000000000000005
:104BB00000000000000000000000000000000000F5
:104BC00000000000000000000000000000000000E5
:104BD00000000000000000000000000000000000D5
:104BE00000000000000000000000000000000000C5
:104BF00000000000000000000000000000000000B5
:104C000000000000000000000000000000000000A4
:104C1000202050542853292020505428494E5229EE
:104C2000205054282529202020415054542853290D
:104C30002054542853292020204649422853292013
:104C400046494228672F4C2920415433284F442994
:104C5000204154332825292020464450284F4429F8
:104C600046445028672F4C29204444284F4429208B
:104C700020444428672F4C29000000000000000059
:104C80000000000000000000000000000000000024
:104C9000000000000000000000000000010203040A
:0C4CA000010203040607080902040608CC
:04000005080001519D
:00000001FF
